{
  "contractName": "Dice2Win",
  "abi": [
    {
      "inputs": [],
      "stateMutability": "payable",
      "type": "constructor"
    },
    {
      "anonymous": false,
      "inputs": [
        {
          "indexed": false,
          "internalType": "uint256",
          "name": "commit",
          "type": "uint256"
        }
      ],
      "name": "Commit",
      "type": "event"
    },
    {
      "anonymous": false,
      "inputs": [
        {
          "indexed": true,
          "internalType": "address",
          "name": "beneficiary",
          "type": "address"
        },
        {
          "indexed": false,
          "internalType": "uint256",
          "name": "amount",
          "type": "uint256"
        }
      ],
      "name": "FailedPayment",
      "type": "event"
    },
    {
      "anonymous": false,
      "inputs": [
        {
          "indexed": true,
          "internalType": "address",
          "name": "beneficiary",
          "type": "address"
        },
        {
          "indexed": false,
          "internalType": "uint256",
          "name": "amount",
          "type": "uint256"
        }
      ],
      "name": "JackpotPayment",
      "type": "event"
    },
    {
      "anonymous": false,
      "inputs": [
        {
          "indexed": true,
          "internalType": "address",
          "name": "beneficiary",
          "type": "address"
        },
        {
          "indexed": false,
          "internalType": "uint256",
          "name": "amount",
          "type": "uint256"
        }
      ],
      "name": "Payment",
      "type": "event"
    },
    {
      "inputs": [],
      "name": "croupier",
      "outputs": [
        {
          "internalType": "address",
          "name": "",
          "type": "address"
        }
      ],
      "stateMutability": "view",
      "type": "function"
    },
    {
      "inputs": [],
      "name": "lockedInBets",
      "outputs": [
        {
          "internalType": "uint128",
          "name": "",
          "type": "uint128"
        }
      ],
      "stateMutability": "view",
      "type": "function"
    },
    {
      "inputs": [],
      "name": "maxProfit",
      "outputs": [
        {
          "internalType": "uint256",
          "name": "",
          "type": "uint256"
        }
      ],
      "stateMutability": "view",
      "type": "function"
    },
    {
      "inputs": [],
      "name": "owner",
      "outputs": [
        {
          "internalType": "address",
          "name": "",
          "type": "address"
        }
      ],
      "stateMutability": "view",
      "type": "function"
    },
    {
      "inputs": [],
      "name": "secretSigner",
      "outputs": [
        {
          "internalType": "address",
          "name": "",
          "type": "address"
        }
      ],
      "stateMutability": "view",
      "type": "function"
    },
    {
      "stateMutability": "payable",
      "type": "receive"
    },
    {
      "inputs": [
        {
          "internalType": "address",
          "name": "_nextOwner",
          "type": "address"
        }
      ],
      "name": "approveNextOwner",
      "outputs": [],
      "stateMutability": "nonpayable",
      "type": "function"
    },
    {
      "inputs": [],
      "name": "acceptNextOwner",
      "outputs": [],
      "stateMutability": "nonpayable",
      "type": "function"
    },
    {
      "inputs": [
        {
          "internalType": "address",
          "name": "newSecretSigner",
          "type": "address"
        }
      ],
      "name": "setSecretSigner",
      "outputs": [],
      "stateMutability": "nonpayable",
      "type": "function"
    },
    {
      "inputs": [
        {
          "internalType": "address",
          "name": "newCroupier",
          "type": "address"
        }
      ],
      "name": "setCroupier",
      "outputs": [],
      "stateMutability": "nonpayable",
      "type": "function"
    },
    {
      "inputs": [
        {
          "internalType": "uint256",
          "name": "_maxProfit",
          "type": "uint256"
        }
      ],
      "name": "setMaxProfit",
      "outputs": [],
      "stateMutability": "nonpayable",
      "type": "function"
    },
    {
      "inputs": [
        {
          "internalType": "address",
          "name": "beneficiary",
          "type": "address"
        },
        {
          "internalType": "uint256",
          "name": "withdrawAmount",
          "type": "uint256"
        }
      ],
      "name": "withdrawFunds",
      "outputs": [],
      "stateMutability": "nonpayable",
      "type": "function"
    },
    {
      "inputs": [],
      "name": "kill",
      "outputs": [],
      "stateMutability": "nonpayable",
      "type": "function"
    },
    {
      "inputs": [
        {
          "internalType": "uint256",
          "name": "betMask",
          "type": "uint256"
        },
        {
          "internalType": "uint256",
          "name": "modulo",
          "type": "uint256"
        },
        {
          "internalType": "uint256",
          "name": "commitLastBlock",
          "type": "uint256"
        },
        {
          "internalType": "uint256",
          "name": "commit",
          "type": "uint256"
        },
        {
          "internalType": "bytes32",
          "name": "r",
          "type": "bytes32"
        },
        {
          "internalType": "bytes32",
          "name": "s",
          "type": "bytes32"
        }
      ],
      "name": "placeBet",
      "outputs": [],
      "stateMutability": "payable",
      "type": "function"
    },
    {
      "inputs": [
        {
          "internalType": "uint256",
          "name": "reveal",
          "type": "uint256"
        },
        {
          "internalType": "bytes32",
          "name": "blockHash",
          "type": "bytes32"
        }
      ],
      "name": "settleBet",
      "outputs": [],
      "stateMutability": "nonpayable",
      "type": "function"
    },
    {
      "inputs": [
        {
          "internalType": "uint256",
          "name": "commit",
          "type": "uint256"
        }
      ],
      "name": "refundBet",
      "outputs": [],
      "stateMutability": "nonpayable",
      "type": "function"
    }
  ],
  "bytecode": "0x6080604052600080546001600160a01b03199081163390811790925560038054821673954d1a58c7abd4ac8ebe05f59191cf718eb0cb891790556006805490911690911790556100566001655af3107a400161005e565b600255610081565b60008282101561007c57634e487b7160e01b81526011600452602481fd5b500390565b6116ca806100906000396000f3fe6080604052600436106100bc5760003560e01c806341c0e1b5146100c85780634d61537f146100df5780635e83b4631461010a5780636b5c5f391461011d5780638da5cb5b14610132578063b539cd5514610147578063c107532914610169578063ca722cdc14610189578063d06c54fb146101a9578063d579fd44146101be578063d702087f146101de578063df88126f146101fe578063e1fdb4b414610220578063f8bb201c14610240578063fbd668a914610260576100c3565b366100c357005b600080fd5b3480156100d457600080fd5b506100dd610280565b005b3480156100eb57600080fd5b506100f46102ea565b6040516101019190610e92565b60405180910390f35b6100dd610118366004610e1c565b6102f9565b34801561012957600080fd5b506100f4610687565b34801561013e57600080fd5b506100f4610696565b34801561015357600080fd5b5061015c6106a5565b6040516101019190610e5e565b34801561017557600080fd5b506100dd610184366004610dba565b6106ab565b34801561019557600080fd5b506100dd6101a4366004610dfb565b61073b565b3480156101b557600080fd5b506100dd61082d565b3480156101ca57600080fd5b506100dd6101d9366004610d99565b61087b565b3480156101ea57600080fd5b506100dd6101f9366004610d99565b6108f5565b34801561020a57600080fd5b50610213610941565b6040516101019190611477565b34801561022c57600080fd5b506100dd61023b366004610de3565b610950565b34801561024c57600080fd5b506100dd61025b366004610d99565b610a46565b34801561026c57600080fd5b506100dd61027b366004610de3565b610a92565b6000546001600160a01b031633146102b35760405162461bcd60e51b81526004016102aa906113a1565b60405180910390fd5b6004546001600160801b0316156102dc5760405162461bcd60e51b81526004016102aa90611333565b6000546001600160a01b0316ff5b6003546001600160a01b031681565b60008381526005602052604090206001810154600160601b90046001600160a01b0316156103395760405162461bcd60e51b81526004016102aa906111d8565b3460018711801561034b575060648711155b6103675760405162461bcd60e51b81526004016102aa90610fa8565b6305f5e10081101580156103815750655af3107a40018111155b61039d5760405162461bcd60e51b81526004016102aa9061104c565b6000881180156103b757506103b460286002611528565b88105b6103d35760405162461bcd60e51b81526004016102aa90610fdf565b854311156103f35760405162461bcd60e51b81526004016102aa90611107565b60008686604051602001610408929190610e75565b604051602081830303815290604052805190602001209050600181601b8787604051600081526020016040526040516104449493929190610ea6565b6020604051602081039080840390855afa158015610466573d6000803e3d6000fd5b5050604051601f1901516003546001600160a01b03908116911614905061049f5760405162461bcd60e51b81526004016102aa90611219565b60008060288a1161050557603f7e010410410410410410410410410410410410410410410410410410410410416104f07920000000001000000000080000000004000000000200000000018e6115f6565b166104fb9190611654565b91508a9050610535565b60008b1180156105155750898b11155b6105315760405162461bcd60e51b81526004016102aa906113e7565b8a91505b6000610542858c85610ae6565b90506002548561055291906114b6565b8111156105715760405162461bcd60e51b81526004016102aa90610ec4565b6004805482919060009061058f9084906001600160801b031661148b565b82546101009290920a6001600160801b03818102199093169183160217909155600454479116111590506105d55760405162461bcd60e51b81526004016102aa90611015565b7f5bdd2fc99022530157777690475b670d3872f32262eb1d47d9ba8000dad58f87896040516106049190610e5e565b60405180910390a1509284556001909301805460ff191660ff998a161761ff00191661010099909416989098029290921766ffffffffff00001916620100004364ffffffffff908116919091029190911764ffffffffff60381b1916600160381b9190921602176001600160601b031633600160601b0217909555505050505050565b6006546001600160a01b031681565b6000546001600160a01b031681565b60025481565b6000546001600160a01b031633146106d55760405162461bcd60e51b81526004016102aa906113a1565b478111156106f55760405162461bcd60e51b81526004016102aa906112ef565b600454479061070e9083906001600160801b03166114b6565b111561072c5760405162461bcd60e51b81526004016102aa9061116b565b610737828283610b89565b5050565b6006546001600160a01b031633146107655760405162461bcd60e51b81526004016102aa906112a3565b6000826040516020016107789190610e5e565b60408051808303601f19018152918152815160209283012060008181526005909352912060018101549192509062010000900464ffffffffff164381106107d15760405162461bcd60e51b81526004016102aa90611250565b6107dc60fa826114b6565b4311156107fb5760405162461bcd60e51b81526004016102aa90611435565b8381401461081b5760405162461bcd60e51b81526004016102aa90610f75565b610826828686610c40565b5050505050565b6001546001600160a01b031633146108575760405162461bcd60e51b81526004016102aa90610f2f565b600154600080546001600160a01b0319166001600160a01b03909216919091179055565b6000546001600160a01b031633146108a55760405162461bcd60e51b81526004016102aa906113a1565b6000546001600160a01b03828116911614156108d35760405162461bcd60e51b81526004016102aa90611134565b600180546001600160a01b0319166001600160a01b0392909216919091179055565b6000546001600160a01b0316331461091f5760405162461bcd60e51b81526004016102aa906113a1565b600380546001600160a01b0319166001600160a01b0392909216919091179055565b6004546001600160801b031681565b600081815260056020526040902080548061097d5760405162461bcd60e51b81526004016102aa90611196565b600182015461099b9060fa9062010000900464ffffffffff166114b6565b43116109b95760405162461bcd60e51b81526004016102aa90611435565b600080835560018301546109da90839060ff80821691610100900416610ae6565b6004805491925082916000906109fa9084906001600160801b0316611615565b92506101000a8154816001600160801b0302191690836001600160801b03160217905550610a4083600101600c9054906101000a90046001600160a01b03168384610b89565b50505050565b6000546001600160a01b03163314610a705760405162461bcd60e51b81526004016102aa906113a1565b600680546001600160a01b0319166001600160a01b0392909216919091179055565b6000546001600160a01b03163314610abc5760405162461bcd60e51b81526004016102aa906113a1565b655af3107a40018110610ae15760405162461bcd60e51b81526004016102aa90611083565b600255565b6000816000108015610af85750828211155b610b145760405162461bcd60e51b81526004016102aa90610ef8565b60006064610b236001876115f6565b610b2d91906114ce565b9050622dc6c0811015610b405750622dc6c05b84811115610b605760405162461bcd60e51b81526004016102aa906110c5565b8284610b6c838861163d565b610b7691906115f6565b610b8091906114ce565b95945050505050565b6040516001600160a01b0384169083156108fc029084906000818181858888f1935050505015610bf957826001600160a01b03167fd4f43975feb89f48dd30cabbb32011045be187d1e11c8ea9faa43efc3528251982604051610bec9190610e5e565b60405180910390a2610c3b565b826001600160a01b03167fac464fe4d3a86b9121261ac0a01dd981bfe0777c7c9d9c8f4473d31a9c0f9d2d83604051610c329190610e5e565b60405180910390a25b505050565b8254600184015460ff80821691610100810490911690600160601b90046001600160a01b031683610c835760405162461bcd60e51b81526004016102aa90611196565b6000808855604051610c9b9088908890602001610e67565b60408051601f19818403018152919052805160209091012090506000610cc18583611654565b90506000610cd0878787610ae6565b9050600060288711610d085760018b0154600160381b900464ffffffffff16610cfa846002611528565b1615610d035750805b610d13565b85831015610d135750805b60048054839190600090610d319084906001600160801b0316611615565b92506101000a8154816001600160801b0302191690836001600160801b03160217905550610d708582600014610d675782610d6a565b60015b83610b89565b5050505050505050505050565b80356001600160a01b0381168114610d9457600080fd5b919050565b600060208284031215610daa578081fd5b610db382610d7d565b9392505050565b60008060408385031215610dcc578081fd5b610dd583610d7d565b946020939093013593505050565b600060208284031215610df4578081fd5b5035919050565b60008060408385031215610e0d578182fd5b50508035926020909101359150565b60008060008060008060c08789031215610e34578182fd5b505084359660208601359650604086013595606081013595506080810135945060a0013592509050565b90815260200190565b918252602082015260400190565b60d89290921b6001600160d81b0319168252600582015260250190565b6001600160a01b0391909116815260200190565b93845260ff9290921660208401526040830152606082015260800190565b6020808252601a908201527936b0bc283937b334ba103634b6b4ba103b34b7b630ba34b7b71760311b604082015260600190565b6020808252601d908201527f57696e2070726f626162696c697479206f7574206f662072616e67652e000000604082015260600190565b60208082526026908201527f43616e206f6e6c792061636365707420707265617070726f766564206e65772060408201526537bbb732b91760d11b606082015260800190565b602080825260199082015278189b1bd8dada185cda08191bd95cdb89dd081b585d18da1959603a1b604082015260600190565b6020808252601e908201527f4d6f64756c6f2073686f756c642062652077697468696e2072616e67652e0000604082015260600190565b6020808252601c908201527b26b0b9b59039b437bab632103132903bb4ba3434b7103930b733b29760211b604082015260600190565b6020808252601f908201527f43616e6e6f74206166666f726420746f206c6f73652074686973206265742e00604082015260600190565b6020808252601e908201527f416d6f756e742073686f756c642062652077697468696e2072616e67652e0000604082015260600190565b60208082526022908201527f6d617850726f6669742073686f756c6420626520612073616e65206e756d6265604082015261391760f11b606082015260800190565b60208082526022908201527f42657420646f65736e2774206576656e20636f76657220686f75736520656467604082015261329760f11b606082015260800190565b60208082526013908201527221b7b6b6b4ba103430b99032bc3834b932b21760691b604082015260600190565b6020808252601d908201527f43616e6e6f7420617070726f76652063757272656e74206f776e65722e000000604082015260600190565b6020808252601190820152702737ba1032b737bab3b410333ab732399760791b604082015260600190565b60208082526022908201527f4265742073686f756c6420626520696e20616e20276163746976652720737461604082015261746560f01b606082015260800190565b60208082526021908201527f4265742073686f756c6420626520696e20612027636c65616e272073746174656040820152601760f91b606082015260800190565b6020808252601d908201527f4543445341207369676e6174757265206973206e6f742076616c69642e000000604082015260600190565b60208082526033908201527f736574746c6542657420696e207468652073616d6520626c6f636b20617320706040820152723630b1b2a132ba161037b9103132b337b9329760691b606082015260800190565b6020808252602c908201527f4f6e6c7943726f7570696572206d6574686f64732063616c6c6564206279206e60408201526b37b716b1b937bab834b2b91760a11b606082015260800190565b60208082526024908201527f496e63726561736520616d6f756e74206c6172676572207468616e2062616c616040820152633731b29760e11b606082015260800190565b60208082526048908201527f416c6c20626574732073686f756c642062652070726f6365737365642028736560408201527f74746c6564206f7220726566756e64656429206265666f72652073656c662d6460608201526732b9ba393ab1ba1760c11b608082015260a00190565b60208082526026908201527f4f6e6c794f776e6572206d6574686f64732063616c6c6564206279206e6f6e2d60408201526537bbb732b91760d11b606082015260800190565b6020808252602e908201527f48696768206d6f64756c6f2072616e67652c206265744d61736b206c6172676560408201526d39103a3430b71036b7b23ab6379760911b606082015260800190565b60208082526022908201527f426c6f636b686173682063616e27742062652071756572696564206279204556604082015261269760f11b606082015260800190565b6001600160801b0391909116815260200190565b60006001600160801b038281168482168083038211156114ad576114ad611668565b01949350505050565b600082198211156114c9576114c9611668565b500190565b6000826114dd576114dd61167e565b500490565b80825b60018086116114f4575061151f565b81870482111561150657611506611668565b8086161561151357918102915b9490941c9380026114e5565b94509492505050565b6000610db3600019848460008261154157506001610db3565b8161154e57506000610db3565b8160018114611564576002811461156e5761159b565b6001915050610db3565b60ff84111561157f5761157f611668565b6001841b91508482111561159557611595611668565b50610db3565b5060208310610133831016604e8410600b84101617156115ce575081810a838111156115c9576115c9611668565b610db3565b6115db84848460016114e2565b8086048211156115ed576115ed611668565b02949350505050565b600081600019048311821515161561161057611610611668565b500290565b60006001600160801b038381169083168181101561163557611635611668565b039392505050565b60008282101561164f5761164f611668565b500390565b6000826116635761166361167e565b500690565b634e487b7160e01b600052601160045260246000fd5b634e487b7160e01b600052601260045260246000fdfea26469706673582212204665ef0ff9fc05802cf619c1867122d97f70abd6ee0782cb62f6f4028491788c64736f6c63430008000033",
  "immutableReferences": {},
  "source": "// SPDX-License-Identifier: GPL-3.0\n\npragma solidity ^0.8.0;\n\n\n// * dice2.win - fair games that pay Ether. Version 5.\n//\n// * Ethereum smart contract, deployed at 0xD1CEeeeee83F8bCF3BEDad437202b6154E9F5405.\n//\n// * Uses hybrid commit-reveal + block hash random number generation that is immune\n//   to tampering by players, house and miners. Apart from being fully transparent,\n//   this also allows arbitrarily high bets.\n//\n// * Refer to https://dice2.win/whitepaper.pdf for detailed description and proofs.\n\ncontract Dice2Win {\n\n    // Constants section\n\n\n    // This are some constants making O(1) population count in placeBet possible.\n    // See whitepaper for intuition and proofs behind it.\n    uint constant POPCNT_MULT = 0x0000000000002000000000100000000008000000000400000000020000000001;\n    uint constant POPCNT_MASK = 0x0001041041041041041041041041041041041041041041041041041041041041;\n    uint constant POPCNT_MODULO = 0x3F;\n\n   // Each bet is deducted 1% in favour of the house, but no less than some minimum.\n    // The lower bound is dictated by gas costs of the settleBet transaction, providing\n    // headroom for up to 10 Gwei prices.\n    //  1%, \n    uint constant HOUSE_EDGE_PERCENT = 1;\n    // uint constant HOUSE_EDGE_MINIMUM_AMOUNT = 0.0003 ether;\n    uint constant HOUSE_EDGE_MINIMUM_AMOUNT =  0.03*10**8; // 0.03 HTDF\n\n    // \n    // Bets lower than this amount do not participate in jackpot rolls (and are\n    // not deducted JACKPOT_FEE).\n    // , , 0.5HTDF,\n    // uint constant MIN_JACKPOT_BET = 0.1 ether;\n    // uint constant MIN_JACKPOT_BET = 1.1*10**8; // HTDF\n    // Chance to win jackpot (currently 0.1%) and fee deducted into jackpot fund.\n    // , 0.1%, 10\n    // \n    // uint constant JACKPOT_MODULO = 1000;\n    // uint constant JACKPOT_FEE = 0.001 ether;\n    // uint constant JACKPOT_FEE = 0.1*10**8 ; //  500\n\n    // There is minimum and maximum bets.\n    // \n    // uint constant MIN_BET = 0.01 ether;\n    uint constant MIN_BET = 1*10**8; // , 100\n    uint constant MAX_AMOUNT = 1000000*10**8 + 1; // 1000000HTDF\n\n    // Modulo is a number of equiprobable outcomes in a game:\n    //  - 2 for coin flip\n    //  - 6 for dice\n    //  - 6*6 = 36 for double dice\n    //  - 100 for etheroll\n    //  - 37 for roulette\n    //  etc.\n    // It's called so because 256-bit entropy is treated like a huge integer and\n    // the remainder of its division by modulo is considered bet outcome.\n    uint constant MAX_MODULO = 100;\n\n    // For modulos below this threshold rolls are checked against a bit mask,\n    // thus allowing betting on any combination of outcomes. For example, given\n    // modulo 6 for dice, 101000 mask (base-2, big endian) means betting on\n    // 4 and 6; for games with modulos higher than threshold (Etheroll), a simple\n    // limit is used, allowing betting on any outcome in [0, N) range.\n    //\n    // The specific value is dictated by the fact that 256-bit intermediate\n    // multiplication result allows implementing population count efficiently\n    // for numbers that are up to 42 bits, and 40 is the highest multiple of\n    // eight below 42.\n    uint constant MAX_MASK_MODULO = 40;\n\n    // This is a check on bet mask overflow.\n    uint constant MAX_BET_MASK = 2 ** MAX_MASK_MODULO;\n\n    // EVM BLOCKHASH opcode can query no further than 256 blocks into the\n    // past. Given that settleBet uses block hash of placeBet as one of\n    // complementary entropy sources, we cannot process bets older than this\n    // threshold. On rare occasions dice2.win croupier may fail to invoke\n    // settleBet in this timespan due to technical issues or extreme Ethereum\n    // congestion; such bets can be refunded via invoking refundBet.\n    uint constant BET_EXPIRATION_BLOCKS = 250;\n\n    // Some deliberately invalid address to initialize the secret signer with.\n    // Forces maintainers to invoke setSecretSigner before processing any bets.\n    address constant DUMMY_ADDRESS = 0xEeeeeEeeeEeEeeEeEeEeeEEEeeeeEeeeeeeeEEeE;\n\n    // Standard contract ownership transfer.\n    address public owner;\n    address private nextOwner;\n\n    // Adjustable max bet profit. Used to cap bets against dynamic odds.\n    uint public maxProfit;\n\n    // The address corresponding to a private key used to sign placeBet commits.\n    address public secretSigner;\n\n    // \n    // Accumulated jackpot fund.\n    // \n    // uint128 public jackpotSize;\n\n    // Funds that are locked in potentially winning bets. Prevents contract from\n    // committing to bets it cannot pay out.\n    uint128 public lockedInBets;\n\n    // A structure representing a single bet.\n    struct Bet {\n        // Wager amount in wei.\n        uint amount;\n        // Modulo of a game.\n        uint8 modulo;\n        // Number of winning outcomes, used to compute winning payment (* modulo/rollUnder),\n        // and used instead of mask for games with modulo > MAX_MASK_MODULO.\n        uint8 rollUnder;\n        // Block number of placeBet tx.\n        uint40 placeBlockNumber;\n        // Bit mask representing winning bet outcomes (see MAX_MASK_MODULO comment).\n        uint40 mask;\n        // Address of a gambler, used to pay out winning bets.\n        address gambler;\n    }\n\n    // Mapping from commits to all currently active & processed bets.\n    mapping (uint => Bet) bets;\n\n    // Croupier account.\n    address public croupier;\n\n    // Events that are issued to make statistic recovery easier.\n    event FailedPayment(address indexed beneficiary, uint amount);\n    event Payment(address indexed beneficiary, uint amount);\n    event JackpotPayment(address indexed beneficiary, uint amount);\n\n    // This event is emitted in placeBet to record commit in the logs.\n    event Commit(uint commit);\n\n    // Constructor. Deliberately does not take any parameters.\n    constructor  () payable  {\n\n        // owner , ownerHTDF\n        owner = msg.sender;\n        // secretSigner = msg.sender;\n         secretSigner = payable(0x954d1a58c7abd4ac8ebe05f59191Cf718eb0cB89); // \n         croupier = msg.sender;\n         maxProfit = MAX_AMOUNT - 1; //  1000000 HTDF, \n    }\n\n    // Standard modifier on methods invokable only by contract owner.\n    modifier onlyOwner {\n        require (msg.sender == owner, \"OnlyOwner methods called by non-owner.\");\n        _;\n    }\n\n    // Standard modifier on methods invokable only by contract owner.\n    modifier onlyCroupier {\n        require (msg.sender == croupier, \"OnlyCroupier methods called by non-croupier.\");\n        _;\n    }\n\n    // \n    // Standard contract ownership transfer implementation,\n    function approveNextOwner(address _nextOwner) external onlyOwner {\n        require (_nextOwner != owner, \"Cannot approve current owner.\");\n        nextOwner = _nextOwner;\n    }\n\n    function acceptNextOwner() external {\n        require (msg.sender == nextOwner, \"Can only accept preapproved new owner.\");\n        owner = nextOwner;\n    }\n\n    // Fallback function deliberately left empty. It's primary use case\n    // is to top up the bank roll.\n    // function () public payable {\n    receive() external payable {\n    }\n\n    // See comment for \"secretSigner\" variable.\n    function setSecretSigner(address newSecretSigner) external onlyOwner {\n        secretSigner = newSecretSigner;\n    }\n\n    // Change the croupier address.\n    function setCroupier(address newCroupier) external onlyOwner {\n        croupier = newCroupier;\n    }\n\n    // Change max bet reward. Setting this to zero effectively disables betting.\n    function setMaxProfit(uint _maxProfit) public onlyOwner {\n        require (_maxProfit < MAX_AMOUNT, \"maxProfit should be a sane number.\");\n        maxProfit = _maxProfit;\n    }\n\n    // This function is used to bump up the jackpot fund. Cannot be used to lower it.\n    // function increaseJackpot(uint increaseAmount) external onlyOwner {\n    //     require (increaseAmount <= address(this).balance, \"Increase amount larger than balance.\");\n    //     require (jackpotSize + lockedInBets + increaseAmount <= address(this).balance, \"Not enough funds.\");\n    //     jackpotSize += uint128(increaseAmount);\n    // }\n\n    // Funds withdrawal to cover costs of dice2.win operation.\n    function withdrawFunds(address beneficiary, uint withdrawAmount) external onlyOwner {\n        require (withdrawAmount <= address(this).balance, \"Increase amount larger than balance.\");\n        require (lockedInBets + withdrawAmount <= address(this).balance, \"Not enough funds.\");\n        sendFunds(beneficiary, withdrawAmount, withdrawAmount);\n    }\n\n    // Contract may be destroyed only when there are no ongoing bets,\n    // either settled or refunded. All funds are transferred to contract owner.\n    function kill() external onlyOwner {\n        // , , \n        require (lockedInBets == 0, \"All bets should be processed (settled or refunded) before self-destruct.\");\n\n        // HTDFowner\n        selfdestruct(payable(owner));\n    }\n\n\n    // \n    /// *** Betting logic\n    // Bet states:\n    //  amount == 0 && gambler == 0 - 'clean' (can place a bet)\n    //  amount != 0 && gambler != 0 - 'active' (can be settled or refunded)\n    //  amount == 0 && gambler != 0 - 'processed' (can clean storage)\n    //\n    //  NOTE: Storage cleaning is not implemented in this contract version; it will be added\n    //        with the next upgrade to prevent polluting Ethereum state with expired bets.\n\n    // Bet placing transaction - issued by the player.\n    //  betMask         - bet outcomes bit mask for modulo <= MAX_MASK_MODULO,\n    //                    [0, betMask) for larger modulos.\n    //  modulo          - game modulo.\n    //  commitLastBlock - number of the maximum block where \"commit\" is still considered valid.\n    //  commit          - Keccak256 hash of some secret \"reveal\" random number, to be supplied\n    //                    by the dice2.win croupier bot in the settleBet transaction. Supplying\n    //                    \"commit\" ensures that \"reveal\" cannot be changed behind the scenes\n    //                    after placeBet have been mined.\n    //  r, s            - components of ECDSA signature of (commitLastBlock, commit). v is\n    //                    guaranteed to always equal 27.\n    //\n    // Commit, being essentially random 256-bit number, is used as a unique bet identifier in\n    // the 'bets' mapping.\n    //\n    // Commits are signed with a block limit to ensure that they are used at most once - otherwise\n    // it would be possible for a miner to place a bet with a known commit/reveal pair and tamper\n    // with the blockhash. Croupier guarantees that commitLastBlock will always be not greater than\n    // placeBet block number plus BET_EXPIRATION_BLOCKS. See whitepaper for details.\n    function placeBet(uint betMask, uint modulo, uint commitLastBlock, uint commit, bytes32 r, bytes32 s) external payable {\n        // Check that the bet is in 'clean' state.\n        Bet storage bet = bets[commit];\n        require (bet.gambler == address(0), \"Bet should be in a 'clean' state.\");\n\n        // Validate input data ranges.\n        uint amount = msg.value;\n        require (modulo > 1 && modulo <= MAX_MODULO, \"Modulo should be within range.\");\n        require (amount >= MIN_BET && amount <= MAX_AMOUNT, \"Amount should be within range.\");\n        require (betMask > 0 && betMask < MAX_BET_MASK, \"Mask should be within range.\");\n\n        // Check that commit is valid - it has not expired and its signature is valid.\n        require (block.number <= commitLastBlock, \"Commit has expired.\");\n        bytes32 signatureHash = keccak256(abi.encodePacked(uint40(commitLastBlock), commit));\n        require (secretSigner == ecrecover(signatureHash, 27, r, s), \"ECDSA signature is not valid.\");\n\n        uint rollUnder;\n        uint mask;\n\n        if (modulo <= MAX_MASK_MODULO) {\n            // Small modulo games specify bet outcomes via bit mask.\n            // rollUnder is a number of 1 bits in this mask (population count).\n            // This magic looking formula is an efficient way to compute population\n            // count on EVM for numbers below 2**40. For detailed proof consult\n            // the dice2.win whitepaper.\n            rollUnder = ((betMask * POPCNT_MULT) & POPCNT_MASK) % POPCNT_MODULO;\n            mask = betMask;\n        } else {\n            // Larger modulos specify the right edge of half-open interval of\n            // winning bet outcomes.\n            require (betMask > 0 && betMask <= modulo, \"High modulo range, betMask larger than modulo.\");\n            rollUnder = betMask;\n        }\n\n        // Winning amount and jackpot increase.\n        uint possibleWinAmount = getDiceWinAmount(amount, modulo, rollUnder);\n\n        // Enforce max profit limit.\n        require (possibleWinAmount <= amount + maxProfit, \"maxProfit limit violation.\");\n\n        // Lock funds.\n        lockedInBets += uint128(possibleWinAmount);\n\n        // Check whether contract has enough funds to process this bet.\n        require (lockedInBets <= address(this).balance, \"Cannot afford to lose this bet.\");\n\n        // Record commit in logs.\n        emit Commit(commit);\n\n        // Store bet parameters on blockchain.\n        bet.amount = amount;\n        bet.modulo = uint8(modulo);\n        bet.rollUnder = uint8(rollUnder);\n        bet.placeBlockNumber = uint40(block.number);\n        bet.mask = uint40(mask);\n        bet.gambler = msg.sender;\n    }\n\n\n    // \n    // This is the method used to settle 99% of bets. To process a bet with a specific\n    // \"commit\", settleBet should supply a \"reveal\" number that would Keccak256-hash to\n    // \"commit\". \"blockHash\" is the block hash of placeBet block as seen by croupier; it\n    // is additionally asserted to prevent changing the bet outcomes on Ethereum reorgs.\n    function settleBet(uint reveal, bytes32 blockHash) external onlyCroupier {\n        uint commit = uint(keccak256(abi.encodePacked(reveal)));\n\n        Bet storage bet = bets[commit];\n        uint placeBlockNumber = bet.placeBlockNumber;\n\n        // Check that bet has not expired yet (see comment to BET_EXPIRATION_BLOCKS).\n        require (block.number > placeBlockNumber, \"settleBet in the same block as placeBet, or before.\");\n        require (block.number <= placeBlockNumber + BET_EXPIRATION_BLOCKS, \"Blockhash can't be queried by EVM.\");\n        require (blockhash(placeBlockNumber) == blockHash, \"blockhash doesn't matched\");\n\n        // Settle bet using reveal and blockHash as entropy sources.\n        settleBetCommon(bet, reveal, blockHash);\n    }\n\n    // Common settlement code for settleBet & settleBetUncleMerkleProof.\n    function settleBetCommon(Bet storage bet, uint reveal, bytes32 entropyBlockHash) private {\n        // Fetch bet parameters into local variables (to save gas).\n        uint amount = bet.amount;\n        uint modulo = bet.modulo;\n        uint rollUnder = bet.rollUnder;\n        address gambler = bet.gambler;\n\n        // Check that bet is in 'active' state.\n        require (amount != 0, \"Bet should be in an 'active' state\");\n\n        // Move bet into 'processed' state already.\n        bet.amount = 0;\n\n        // The RNG - combine \"reveal\" and blockhash of placeBet using Keccak256. Miners\n        // are not aware of \"reveal\" and cannot deduce it from \"commit\" (as Keccak256\n        // preimage is intractable), and house is unable to alter the \"reveal\" after\n        // placeBet have been mined (as Keccak256 collision finding is also intractable).\n        bytes32 entropy = keccak256(abi.encodePacked(reveal, entropyBlockHash));\n\n        // Do a roll by taking a modulo of entropy. Compute winning amount.\n        uint dice = uint(entropy) % modulo;\n        uint diceWinAmount = getDiceWinAmount(amount, modulo, rollUnder);\n        uint diceWin = 0;\n\n        // Determine dice outcome.\n        if (modulo <= MAX_MASK_MODULO) {\n            // For small modulo games, check the outcome against a bit mask.\n            if ((2 ** dice) & bet.mask != 0) {\n                diceWin = diceWinAmount;\n            }\n\n        } else {\n            // For larger modulos, check inclusion into half-open interval.\n            if (dice < rollUnder) {\n                diceWin = diceWinAmount;\n            }\n\n        }\n\n        // Unlock the bet amount, regardless of the outcome.\n        lockedInBets -= uint128(diceWinAmount);\n\n        // Send the funds to gambler.\n        sendFunds(gambler, diceWin  == 0 ? 1 wei : diceWin , diceWin);\n    }\n\n    // Refund transaction - return the bet amount of a roll that was not processed in a\n    // due timeframe. Processing such blocks is not possible due to EVM limitations (see\n    // BET_EXPIRATION_BLOCKS comment above for details). In case you ever find yourself\n    // in a situation like this, just contact the dice2.win support, however nothing\n    // precludes you from invoking this method yourself.\n    function refundBet(uint commit) external {\n        // Check that bet is in 'active' state.\n        Bet storage bet = bets[commit];\n        uint amount = bet.amount;\n\n        require (amount != 0, \"Bet should be in an 'active' state\");\n\n        // Check that bet has already expired.\n        require (block.number > bet.placeBlockNumber + BET_EXPIRATION_BLOCKS, \"Blockhash can't be queried by EVM.\");\n\n        // Move bet into 'processed' state, release funds.\n        bet.amount = 0;\n\n        uint diceWinAmount = getDiceWinAmount(amount, bet.modulo, bet.rollUnder);\n\n        lockedInBets -= uint128(diceWinAmount);\n        // jackpotSize -= uint128(jackpotFee);\n\n        // Send the refund.\n        sendFunds(bet.gambler, amount, amount);\n    }\n\n    // Get the expected win amount after house edge is subtracted.\n    function getDiceWinAmount(uint amount, uint modulo, uint rollUnder) private pure returns (uint winAmount ) {\n        require (0 < rollUnder && rollUnder <= modulo, \"Win probability out of range.\");\n\n        // \n        // jackpotFee = amount >= MIN_JACKPOT_BET ? JACKPOT_FEE : 0;\n\n        uint houseEdge = amount * HOUSE_EDGE_PERCENT / 100;\n\n        if (houseEdge < HOUSE_EDGE_MINIMUM_AMOUNT) {\n            houseEdge = HOUSE_EDGE_MINIMUM_AMOUNT;\n        }\n\n        require (houseEdge  <= amount, \"Bet doesn't even cover house edge.\");\n        winAmount = (amount - houseEdge ) * modulo / rollUnder;\n    }\n\n    // Helper routine to process the payment.\n    function sendFunds(address beneficiary, uint amount, uint successLogAmount) private {\n        if (payable(beneficiary).send(amount)) {\n            emit Payment(beneficiary, successLogAmount);\n        } else {\n            emit FailedPayment(beneficiary, amount);\n        }\n    }\n\n}",
  "sourcePath": "/data2/work/orientwalt/dicegame/contracts/Dice2Win.sol",
  "compiler": {
    "name": "solc",
    "version": "0.8.0+commit.c7dfd78e.Emscripten.clang"
  },
  "schemaVersion": "3.3.3",
  "updatedAt": "2021-06-28T10:35:40.140Z",
  "devdoc": {
    "kind": "dev",
    "methods": {},
    "version": 1
  },
  "userdoc": {
    "kind": "user",
    "methods": {
      "placeBet(uint256,uint256,uint256,uint256,bytes32,bytes32)": {
        "notice": "*** Betting logic"
      }
    },
    "version": 1
  }
}